01000180011206190952001139                                                                                                                                                                                                                                                                                  
01VF1139201206190120120619                                                                                                                                                                                                                                                                                  
03VF1139201206190120120619                                                                                                                                                                                                                                                                                  
05VF11390001005423731SCANTARINA           LIMA                LUISA               0000000001                                                                                                                                                                                                                
05VF11390001050987213PNIETA               MUROS               MARTA               0000000002                                                                                                                                                                                                                
05VF11390001053517259TCIRRO               ALVAREZ             JUAN                0000000003                                                                                                                                                                                                                
07VF1139201206190120120619000005000003                                                                                                                                                                                                                                                                      
09VF1139201206190120120619000007000003                                                                                                                                                                                                                                                                      