01000181011206190020001139                                                                                                                                                                                                                                                                                  
01RV1139201206190120120619                                                                                                                                                                                                                                                                                  
03RV11392012061901201206191139                                                                                                                                                                                                                                                                              
05RV11390001005423731SCANTARINA           LIMA                LUISA               0000000001      01CA00000020B78019343                                                            COLEGIO GENERAL MANUEL MIRAS, S.L.                     0853120120619                                                     
05RV11390001050987213PNIETA               MUROS               MARTA               0000000002      01CP0619000                                                                                                                             0000020120619                                                     
06RV11390001050987213PNIETA               MUROS               MARTA               0000000002      01CA00000010B84302258                                                            AGROPECUARIA VALLECRIO NUEVO, S.L.                     0011120120619                                                     
05RV11390001053517259TCIRRO               ALVAREZ             JUAN                0000000003      01CA00000060H34098344                                                            COM.PROP.ALCALDE CERVER SINDE 6                        0970020120619                                                     
07RV11392012061901201206190000061139000003000000000001                                                                                                                                                                                                                                                      
09RV1139201206190120120619000008000003000000000001                                                                                                                                                                                                                                                          
